{
  "_format": "hh-sol-artifact-1",
  "contractName": "Storage",
  "sourceName": "contracts/Storage.sol",
  "abi": [
    {
      "inputs": [
        {
          "internalType": "contract Membership",
          "name": "_member",
          "type": "address"
        }
      ],
      "stateMutability": "nonpayable",
      "type": "constructor"
    },
    {
      "inputs": [],
      "name": "member",
      "outputs": [
        {
          "internalType": "contract Membership",
          "name": "",
          "type": "address"
        }
      ],
      "stateMutability": "view",
      "type": "function"
    },
    {
      "inputs": [
        {
          "internalType": "uint256",
          "name": "_value",
          "type": "uint256"
        }
      ],
      "name": "setValue",
      "outputs": [],
      "stateMutability": "nonpayable",
      "type": "function"
    },
    {
      "inputs": [],
      "name": "value",
      "outputs": [
        {
          "internalType": "uint256",
          "name": "",
          "type": "uint256"
        }
      ],
      "stateMutability": "view",
      "type": "function"
    }
  ],
  "bytecode": "0x608060405234801561001057600080fd5b506040516101e73803806101e783398101604081905261002f91610054565b600180546001600160a01b0319166001600160a01b0392909216919091179055610084565b60006020828403121561006657600080fd5b81516001600160a01b038116811461007d57600080fd5b9392505050565b610154806100936000396000f3fe608060405234801561001057600080fd5b50600436106100415760003560e01c80633fa4f245146100465780635524107714610062578063e3f6b54414610077575b600080fd5b61004f60005481565b6040519081526020015b60405180910390f35b610075610070366004610105565b6100a2565b005b60015461008a906001600160a01b031681565b6040516001600160a01b039091168152602001610059565b6001546040516302bf3e8b60e41b81523360048201526001600160a01b0390911690632bf3e8b09060240160006040518083038186803b1580156100e557600080fd5b505afa1580156100f9573d6000803e3d6000fd5b50505060009190915550565b60006020828403121561011757600080fd5b503591905056fea2646970667358221220f45ee4a03a083777285d2a5f8b1513144b9ad5763fb23f5e228ff7a6792a5b9f64736f6c63430008140033",
  "linkReferences": {},
  "deployedLinkReferences": {}
}